:020000040800F2
:100000002828002021020008290200082B020008ED
:100010002D0200082F020008310200080000000035
:10002000000000000000000000000000890100083E
:100030003502000800000000CD0100081507000887
:100040003B0200083B0200083B0200083B0200089C
:100050003B0200083B0200083B0200083B0200088C
:100060003B0200083B0200083B0200083B0200087C
:100070003B0200083B0200083B0200083B0200086C
:100080003B0200083B0200083B0200083B0200085C
:100090003B0200083B0200083B0200083B0200084C
:1000A0003B0200083B0200083B0200083B0200083C
:1000B0003B0200083B0200083B0200083B0200082C
:1000C0003B0200083B0200083B0200083B0200081C
:1000D0003B0200083B0200083B0200083B0200080C
:1000E0003B0200083B0200083B02000800F002F857
:1000F00000F03AF80AA090E8000C82448344AAF188
:100100000107DA4501D100F02FF8AFF2090EBAE885
:100110000F0013F0010F18BFFB1A43F0010318473B
:10012000181F0000381F0000103A24BF78C878C19B
:10013000FAD8520724BF30C830C144BF04680C60ED
:10014000704700000023002400250026103A28BF35
:1001500078C1FBD8520728BF30C148BF0B60704739
:100160001FB51FBD10B510BD00F0BCF91146FFF75B
:10017000F7FF00F00DFB00F0DAF903B4FFF7F2FF30
:1001800003BC00F0E1F90000224B19680868B0E8F0
:10019000F00F80F30988BFF36F8F4FF0000080F3FA
:1001A00011884EF00D0E70470000000006480068F0
:1001B000006880F3088862B661B6BFF34F8FBFF363
:1001C0006F8F00DF00BF00BF08ED00E0EFF3098094
:1001D000BFF36F8F0F4B1A6820E9F00F106008B55E
:1001E0004FF0500080F31188BFF34F8FBFF36F8F34
:1001F00001F02EFA4FF0000080F31188BDE80840AE
:1002000019680868B0E8F00F80F30988BFF36F8FB2
:10021000704700BF04000020EFF305807047000026
:100220000948804709480047FEE7FEE7FEE7FEE78A
:10023000FEE7FEE7FEE7FEE7FEE7FEE704480549C6
:10024000054A064B7047000041070008ED00000812
:1002500028220020282800202824002028240020EC
:1002600053EA020C00F069802DE9F04B4FF00006D4
:10027000002B1FBFB3FA83F503FA05F424FA05F641
:100280005E4012BF1643B2FA82F502FA05F4C5F1D8
:1002900020051EBF22FA05FC44EA0C04203556EA6C
:1002A000044C4FEA144418BF641C4FF000084FF090
:1002B0000009904271EB030C39D3002919BFB1FA40
:1002C00081F701FA07F6B0FA80F700FA07F6C7F1EE
:1002D00020071EBF20FA07FC46EA0C062037B6FBB3
:1002E000F4FCA7EB0507103F07F01F0BCBF120062E
:1002F0000CFA0BFB2CFA06F644BFB3460026202F5F
:10030000A4BF5E464FF0000B5BEA060C08BF4FF03F
:10031000010B19EB0B09ABFB027C48EB0608C01B79
:1003200006FB02CC0BFB03CC71EB0C01C1E70B46C7
:10033000024641464846BDE8F08B13B54FF0000039
:100340004FF00001AFF30080BDE81C407047032A66
:1003500040F2308010F0030C00F0158011F8013BE2
:10036000BCF1020F624498BF11F801CB00F8013BC9
:1003700038BF11F8013BA2F1040298BF00F801CB8D
:1003800038BF00F8013B11F0030300F02580083A64
:10039000C0F0088051F8043B083A51F804CBA0E8BB
:1003A0000810F5E7121D5CBF51F8043B40F8043B10
:1003B000AFF30080D20724BF11F8013B11F801CB45
:1003C00048BF11F8012B24BF00F8013B00F801CB16
:1003D00048BF00F8012B704710B5203AC0F00B80E1
:1003E000B1E81850203AA0E81850B1E81850A0E839
:1003F0001850BFF4F5AF5FEA027C24BFB1E8185093
:10040000A0E8185044BF18C918C0BDE810405FEA02
:10041000827C24BF51F8043B40F8043B08BF70477E
:10042000D20728BF31F8023B48BF11F8012B28BF83
:1004300020F8023B48BF00F8012B704702F0FF0391
:1004400043EA032242EA024200F002B84FF00002FF
:100450000429C0F0128010F0030C00F01B80CCF1D6
:10046000040CBCF1020F18BF00F8012BA8BF20F844
:10047000022BA1EB0C0100F00DB85FEAC17C24BF98
:1004800000F8012B00F8012B48BF00F8012B704742
:100490004FF0000200B5134694469646203922BF1D
:1004A000A0E80C50A0E80C50B1F12001BFF4F7AF68
:1004B000090728BFA0E80C5048BF0CC05DF804EB4A
:1004C000890028BF40F8042B08BF704748BF20F8B8
:1004D000022B11F0804F18BF00F8012B70477047B6
:1004E00070477047754600F02BF8AE460500694628
:1004F000534620F00700854618B020B5FFF79EFE52
:10050000BDE820404FF000064FF000074FF0000814
:100510004FF0000B21F00701AC46ACE8C009ACE895
:10052000C009ACE8C009ACE8C0098D46704710B5F9
:100530000446AFF300802046BDE81040FFF71DBE23
:1005400000487047C421002001491820ABBEFEE7D7
:10055000260002007047000038B50121042000F099
:1005600071F82020ADF8000010208DF80300032062
:100570008DF80200054C6946204600F009F800227B
:100580002021204600F057F838BD00000008014047
:100590002DE9F0410022CC7804F00F03E40601D5E8
:1005A0008C7823430C784FF00F0714F0FF0F4FF0B7
:1005B000010C1CD005680CFA02F40E882640A642F5
:1005C00011D1960007FA06F825EA080503FA06F89D
:1005D00048EA0505CE78282E02D0482E02D002E047
:1005E000446100E00461521C082AE4D305600A88D3
:1005F000FF2A1ED94568002202F108060CFA06F40B
:100600000E882640A64210D1960007FA06F825EA81
:10061000080503FA06F848EA0505CE78282E00D129
:100620004461CE78482E00D10461521C082AE3D3DD
:100630004560BDE8F081002A01D001617047416149
:1006400070470000054A002903D091690143916178
:10065000704791698143916170470000001002402A
:10066000AFF300800CB50022019200922748016888
:1006700041F4803101604FF4A063016801F400315E
:1006800000910199491C0191009911B90199994270
:10069000F3D10168890302D50121009100E00092A5
:1006A0000099012930D11A490A6842F010020A6003
:1006B0000A6822F007020A600A6842F002020A6031
:1006C0004168416041684160416841F48061416036
:1006D000416821F47C114160416841F4E8114160B6
:1006E000016841F08071016001688901FCD54168B1
:1006F00021F003014160416841F00201416041681D
:10070000C1F381010229FAD10CBD000000100240A2
:100710000020024010B5502080F31188BFF34F8FA6
:10072000BFF36F8F01F05AFA18B104494FF08050AF
:100730000860002080F3118810BD000004ED00E087
:1007400010B50F48016841F00101016041680D4A90
:100750001140416001680C4A11400160016821F4B8
:1007600080210160416821F4FE0141604FF41F01C6
:100770008160FFF775FF05494FF00060086010BD0C
:10078000001002400000FFF8FFFFF6FE08ED00E059
:100790001CB5FFF7E1FE00220821052000F0E8FF6C
:1007A0000C490860A0B100240120CDE900042346D3
:1007B000802209A10B4801F0EDF90220CDE90004E7
:1007C0000023802208A10C4801F0E4F900F00EFF9C
:1007D000FEE70000000000204C6564426C696E6B0F
:1007E000000000005D1200084461746147656E6599
:1007F0007261746500000000191200082DE9F047CD
:10080000044689461C4DEE686F6BD5F83880286821
:10081000001D00F0EFFC601C17D1B9F1000F14D0DF
:10082000164948682A68906083682A68D3602A68F5
:100830008368121D5A602A68121D8260286841610F
:100840000868401C0860BDE8F087344428684460AC
:10085000B44206D229684046BDE8F047091D00F0C1
:100860005DBD29683846091D00F058FDA86A84421C
:10087000E9D2AC62E7E70000040000208801002014
:1008800070B5044600F062FD244DA868401CA860C5
:10089000286810B1686938B10CE02C60A86801289C
:1008A00008D100F0DFF905E02868E16AC06A8842F3
:1008B00000D82C60686A401C6862A064E06A2969FC
:1008C000884200D92861164A00EB800002EB8000C4
:1008D0004068A0608168E1608368211D5960816083
:1008E000E06A00EB800002EB8001616152F82010A9
:1008F000491C42F8201000F049FD686900280CD01E
:100900002868E16AC06A884207D206494FF08050E1
:100910000860BFF34F8FBFF36F8F70BD04000020DE
:10092000D400002004ED00E010B500F00FFD0E4CE7
:100930002068A0B90D4800F0E3FC0C48143000F02A
:10094000DFFC0A48E0601430206100220C210A20FC
:1009500000F00EFF206010B105A100F083FDBDE89E
:10096000104000F013BD0000440000209C01002056
:10097000546D72510000000070B50C4D0C4E11E02A
:1009800000F0E4FCF068C468201D00F033FCA868A7
:10099000401EA8606868401E686000F0F7FC2046B2
:1009A00000F0AAF868680028EAD170BD04000020B1
:1009B0007401002030B40B46026C002A0CD0C168D0
:1009C0001144C1608468A14201D30168C160C1685B
:1009D00030BC1846FFF7BBBC30BC70472DE9F04176
:1009E000044617460026A56B226C002A10D0C7B11A
:1009F000E068FFF7ACFCE168206C091AE16022684E
:100A0000914202D2A168081AE060022F16D017E0C6
:100A10002068A8B9A06801F079F906460020A06016
:100A20000EE06068FFF793FC216C6068084460602A
:100A3000A168884204D32068606001E005B16D1EA2
:100A40006D1CA5633046BDE8F081000070B588B02C
:100A5000002003AA0DA1095C115411B1401C1428F7
:100A6000F8DB00240B4E00250B4806EB8401CDE992
:100A700000510023802203A901F08CF8002802D045
:100A8000641C012CF0DB08B070BD000049444C45EB
:100A90000000000040000020790B00082DE9FF5FF6
:100AA0008146DDE90E788A4616469B46B00000F086
:100AB000F1FA054628000ED07C2000F0EBFA04463F
:100AC0002CB17C212046FFF7E3FC256304E0284697
:100AD00000F072FC00E0002454B10020CDE9024097
:100AE000CDE900785B4632465146484600F069F849
:100AF00004B02046BDE8F09F10B50446206B00F01E
:100B00005BFC2046BDE8104000F056BC0749CA68AF
:100B10001168002904D00021016019B1002070473C
:100B20000121F9E7D0680068704700004400002008
:100B30004FF400510E48420706D0C01D20F00700B8
:100B40000B49411AC1F500510A4A10600023536055
:100B50000144083921F00701143A11604B600B6021
:100B60000B1A43600160406890605060704700005D
:100B7000C40100206C000020074E4FF08054074D48
:100B8000FFF7FAFE30680128FAD92C60BFF34F8FC7
:100B9000BFF36F8FF4E70000D400002004ED00E005
:100BA00070B51D46049C002909D02260E0632164D1
:100BB0000121204600F004FE84F84C5070BD2460F2
:100BC000F4E72DE9F0478146DDE908680A9C0D4607
:100BD00017469A46B900A522206BFFF72FFC206B21
:100BE0007F1E00EB870020F00707780707D0502012
:100BF00080F31188BFF34F8FBFF36F8FFEE765B1AE
:100C000000202218295C82F83410295C11B1401CA4
:100C10001428F6D3002084F84700052E07D350206F
:100C200080F31188BFF34F8FBFF36F8FFEE7E6624B
:100C30002665201D00F06FFB04F1180000F06BFB2F
:100C40002461C6F10500A0616462524649463846F7
:100C500000F0C2FA2060B8F1000F01D0C8F80040DF
:100C6000BDE8F08770B50024124D04EB840005EB5D
:100C7000800000F045FB641C052CF6D30D48643061
:100C800000F03EFB0B48783000F03AFB09488C300E
:100C900000F036FB0748A03000F032FB0548B430C6
:100CA00000F02EFB03490448643141631431816331
:100CB00070BD0000D40000200400002030B51B49A6
:100CC00000E011460A688242FBD3184B99420DD0CE
:100CD000174B994202D3174B994207D9502080F302
:100CE0001188BFF34F8FBFF36F8FFEE74B685C181F
:100CF000844203D140681844486008460D68436840
:100D00001C18AC420DD1094C143C2468A24206D0F8
:100D100052681A4442600A681268026002E0046085
:100D200000E00260814200D0086030BD6C0000200D
:100D3000C4010020C321002070B50024416000617F
:100D40000C4D91420AD8D11A8269914201D30124F3
:100D50000EE0011D286900F0E1FA09E09A4203D291
:100D6000994201D3012403E0011DE86800F0D6FA9E
:100D7000204670BD4400002010B5044600F0E6FA9D
:100D8000A06B20B1002400F001FB204610BD01241F
:100D9000F9E710B5044600F0D9FAA06BE16B884280
:100DA00001D1012400E0002400F0F0FA204610BD3B
:100DB00070B505460E460D48C068C068C468201D61
:100DC00000F018FA94F82800410705D53246294664
:100DD000204600F0B9F803E000F0FE0084F8280097
:100DE0002046216ABDE8704008470000440000200A
:100DF0007FB50020019002900390374E63E0019888
:100E0000002860DB039C606910B1201D00F0F2F93E
:100E1000684600F0BDF8054601980A2853D2DFE87D
:100E200000F0520505282E460505282E94F82800C6
:100E300040F0010084F828000298A16903460144AB
:100E40002A462046FFF778FF40B394F82800410770
:100E500007D50298A1692A460144204600F074F89B
:100E600003E000F0FE0084F82800216A204688474D
:100E700029E014F8280F00F0FE00207023E094F819
:100E8000280040F0010084F828000298A06130B1E9
:100E900041192B462A462046FFF74EFF13E050200B
:100EA00080F31188BFF34F8FBFF36F8FFEE794F885
:100EB0002800810703D4204600F07EFA03E000F00A
:100EC000FE0084F82800002201A9306800F084FDAB
:100ED000002894D17FBD000044000020F8B50646EC
:100EE0000D4600F0ADFB684600F052F8044600984D
:100EF00010B100F0CDFFF8BD45B9A64206D800F00C
:100F0000C7FF21463046FFF753FFF8BD0C481DB11F
:100F10000169096891B10025311B2A46006800F07B
:100F2000C7FA00F0B5FF0028EFD106494FF0805016
:100F30000860BFF34F8FBFF36F8FF8BD0125EBE75C
:100F40004400002004ED00E070B505460C4616464E
:100F500004E0A8690444296A28468847A86923460A
:100F6000011932462846FFF7E7FE0028F1D170BD8F
:100F70000648416B0968002904D0416BC9680968BB
:100F8000816270474FF0FF3181627047040000209A
:100F900070B5054600F01CFE0446074EB06884425A
:100FA00004D200F00BF80120286001E00020286046
:100FB000B460204670BD00004400002070B5094CAC
:100FC0004FF0FF3504E0C06800682946FFF7F0FEE7
:100FD000E0680268002AF6D1E0682169E1602061DA
:100FE00070BD00004400002009484068401C07D044
:100FF000502080F31188BFF34F8FBFF36F8FFEE750
:10100000502080F31188BFF34F8FBFF36F8FFEE73F
:101010007400002008B56846FFF778FD0099FFF7D7
:101020005DFFFFF7E5FEF6E72DE9F041044600F02D
:101030008DF994F9455004F1240609E0606A48B13D
:10104000304600F0B5FE08B100F086FA6D1E6DB2B4
:10105000002DF3DC4FF0FF3684F8456000F096F980
:1010600000F074F994F9445004F1100709E0206984
:1010700048B1384600F09CFE08B100F06DFA6D1ED4
:101080006DB2002DF3DC84F84460BDE8F04100F05F
:101090007DB900002DE9F04104460025002C11D057
:1010A00014F1090F0DD8083460070BD004F00700C5
:1010B000C0F10800C1438C4201D8044402E000247E
:1010C00000E0002400F0BCFA404E306808B9FFF799
:1010D0002FFD002C6ADDD6F804C0644566D83B4875
:1010E0001430014609683A4FB94202D3394B99424C
:1010F00015D9502080F31188BFF34F8FBFF36F8F46
:10110000FEE708461146B94201D3994207D950205B
:1011100080F31188BFF34F8FBFF36F8FFEE74A68EC
:10112000A24202D20A68002AEBD1326891423DD035
:1011300005680835BD4201D39D4207D9502080F390
:101140001188BFF34F8FBFF36F8FFEE70A6802600D
:101150004A68A24207D2502080F31188BFF34F8F14
:10116000BFF36F8FFEE7131B102B0FD90A19570718
:1011700007D0502080F31188BFF34F8FBFF36F8FDC
:10118000FEE753604C600368136002604A68ACEB92
:1011900002007060B368984200D2B06042F0004034
:1011A000486000200860F068401CF06000F070FEAD
:1011B000680707D0502080F31188BFF34F8FBFF32B
:1011C0006F8FFEE72846BDE8F08100005800002040
:1011D000C4010020C321002020384FF08073C36178
:1011E00021F0010181610249416140F820297047E5
:1011F000E90F00080169D0E901329A60D0E90123C2
:101200005A604A68824201D182684A6000220261C3
:101210000868401E086070478AB0002420220D49EB
:101220006846FFF7D9F80C4D6E46671E4FF4FA6812
:1012300006EBC40103C9CDE9080100233A4608A919
:10124000286800F017FB641C04F00304404600F01B
:1012500053F9EDE718200008000000201CB53224E7
:101260003225DFF894904FF0FF326946D9F800003C
:1012700000F0B2FB64274FF47A7601280AD1009877
:1012800040B10098B6FBF0F09DF804104143B1FB6B
:10129000F7F4051BDFF8648024E0009840B1009863
:1012A000B6FBF0F09DF804104143B1FBF7F4051BC9
:1012B000012220214046FFF7BEF9A4FB0601324679
:1012C0000023FEF7CDFF00F017F900222021404651
:1012D000FFF7B1F9A5FB060132460023FEF7C0FF78
:1012E00000F00AF900226946D9F8000000F074FB0A
:1012F0000128DDD1D1E700000000002000080140F6
:1013000000F1080141604FF0FF328260C16001616D
:1013100000210160704700210161704730B50C6801
:10132000621C02D000F1080202E0026904E01A46E1
:1013300053681D68A542FAD953684B6099608A606A
:10134000516008610168491C016030BD502080F384
:101350001188BFF34F8FBFF36F8F0A494868401C55
:10136000486001280CD10848006810F0FF0F07D032
:10137000502080F31188BFF34F8FBFF36F8FFEE7CC
:10138000704700007400002004ED00E0094948683F
:10139000002806D0401E4860002801D180F3118843
:1013A0007047502080F31188BFF34F8FBFF36F8FCA
:1013B000FEE700007400002070B5002838D008381F
:1013C00004461C48844202D31B48844207D950205B
:1013D00080F31188BFF34F8FBFF36F8FFEE7606814
:1013E000002807DB502080F31188BFF34F8FBFF335
:1013F0006F8FFEE7216839B1502080F31188BFF369
:101400004F8FBFF36F8FFEE720F00040606000F069
:1014100017F90A4D60686968084468602046FFF75C
:101420004DFC2869401C2861BDE8704000F030BDCB
:1014300070BD0000C4010020C3210020580000201E
:101440004FF0E02000210161816105494FF47A727B
:101450000968B1FBF2F1491E416107210161704742
:101460008000002070B5002300280AD0C9B10022F6
:101470000E4D05EBC204666886420AD105EBC20335
:101480000FE0502080F31188BFF34F8FBFF36F8FB1
:10149000FEE71BB955F8326006B92346521C082AEC
:1014A000E7D3002B01D01960586070BD9400002074
:1014B00070B504460D461646FFF748FF94F94430D0
:1014C0004FF000005B1C01D184F8440094F94510F2
:1014D000491C01D184F84500FFF758FFA06B28B9DB
:1014E0003246294604F1240000F056F82046BDE8B3
:1014F0007040FFF799BD000010B502460020002A99
:1015000013D000F09DF80E48006B012807D0502042
:1015100080F31188BFF34F8FBFF36F8FFEE7002179
:101520001046FFF76BF900F0B3FC002807D105491E
:101530004FF080500860BFF34F8FBFF36F8F10BD27
:101540000400002004ED00E002490A6A0260C96854
:101550004160704704000020014901200860704785
:101560002000002010B50C4600280AD0094909685F
:101570001831FFF7D3FE2046BDE810400121FFF7E8
:101580003DB9502080F31188BFF34F8FBFF36F8FA9
:10159000FEE7000004000020F0B40C4600281AD03A
:1015A0004168114B1D68E9618D681E6835621D68D0
:1015B0008E68183575601D6818358D6019688862E9
:1015C0000168491C01600AB14FF0FF342046F0BCAD
:1015D0001146FFF713B9502080F31188BFF34F8FE6
:1015E000BFF36F8FFEE700000400002010B5FFF787
:1015F0002DFA012801D100F0E9FC104C012802D09D
:10160000401C12D00FE0502080F31188BFF34F8FA1
:10161000BFF36F8F4FF0FF30A062012060610020A8
:10162000E06000F04BF8E06A10BD502080F31188B4
:10163000BFF34F8FBFF36F8FFEE700000400002061
:101640000248016B491C0163704700000400002040
:1016500010B5184B196B03F11C00002902D00121B1
:10166000016010BD002101601869134901E0C8B193
:10167000401E00EB800251F82220002AF7D000EB38
:10168000800201EB82014A6852684A6001F1080455
:10169000A24201D1CA684A604968C96819601861E4
:1016A000186810BD502080F31188BFF34F8FBFF32F
:1016B0006F8FFEE704000020D40000203EB5002517
:1016C0000195284908780290FF200870087800905A
:1016D0009DF80000244C00F05000207000280CD031
:1016E0009DF800205020904316D0502080F31188A0
:1016F000BFF34F8FBFF36F8FFEE7502080F3118849
:10170000BFF34F8FBFF36F8FFEE70198401C01902E
:101710009DF80000400000909DF800000006F4D401
:10172000019808281BD00198C0F10700A060207A1A
:10173000000200F4E060A0609DF8080008700B480B
:10174000016841F47F010160016841F07F4101605F
:10175000FFF776FE6560FEF729FD00203EBDA5601F
:10176000E5E7000000E400E07400002020ED00E068
:10177000F8B505460E461746002D19D04FF0FF303C
:10178000B0FBF5F0B04213D305FB06F010F1510F9A
:101790000ED85030FFF77EFC04463CB12246503252
:1017A0003B46314628460094FFF7FAF92046F8BD3B
:1017B000502080F31188BFF34F8FBFF36F8FFEE788
:1017C0002DE9F04104460F460125002C2AD0E06B9C
:1017D00080B3AE1EB6FBF0F1206C81423BD3FFF725
:1017E000B5FDD4E90F20216802FB0011A1600021A2
:1017F000A16321686160E06B2268216C401E00FBE0
:101800000121E16084F8446084F8456004F110002F
:101810008FB1FFF775FD04F12400FFF771FDFFF7AD
:10182000B5FD19E0502080F31188BFF34F8FBFF34F
:101830006F8FFEE70FE021690029F0D000F0B8FAC1
:101840000028ECD00A494FF080500860BFF34F8F5A
:10185000BFF36F8FE3E7002515B12846BDE8F0819F
:10186000502080F31188BFF34F8FBFF36F8FFEE7D7
:1018700004ED00E02DE9FF4782B004468A461E468B
:101880000025002C03D0BAF1000F08D011E0502041
:1018900080F31188BFF34F8FBFF36F8FFEE7206C8B
:1018A00038B1502080F31188BFF34F8FBFF36F8F93
:1018B000FEE7022E0AD1E06B012807D0502080F30A
:1018C0001188BFF34F8FBFF36F8FFEE700F072F9FF
:1018D00048B9049838B1502080F31188BFF34F8F76
:1018E000BFF36F8FFEE74FF000094FF08057DFF82E
:1018F000E480FFF72BFDA06BE16B884205D3022E3D
:1019000003D0049808B325B327E032465146204659
:10191000FFF764F8616A59B104F1240000F048FA55
:1019200068B1C8F80070BFF34F8FBFF36F8F06E048
:1019300028B1C8F80070BFF34F8FBFF36F8FFFF768
:1019400025FD012006B0BDE8F087FFF71FFD002050
:10195000F8E76846FFF7F8FD0125FFF717FDFFF7E9
:101960006FFEFFF7F3FC94F94400401C01D184F8AA
:10197000449094F94500401C01D184F84590FFF74C
:1019800005FD04A9684600F0C5F830B12046FFF710
:101990004BFB00F07DFA0020D4E72046FFF7F9F971
:1019A00090B104F110000499FFF7DCFD2046FFF729
:1019B0003BFB00F06DFA00289BD1C8F80070BFF324
:1019C0004F8FBFF36F8F94E72046FFF72DFB00F09A
:1019D0005FFA8EE704ED00E02DE9F74783B0044697
:1019E0008A460026002C03D0BAF1000F08D011E07F
:1019F000502080F31188BFF34F8FBFF36F8FFEE746
:101A0000206C38B1502080F31188BFF34F8FBFF3A3
:101A10006F8FFEE700F0CEF848B9059838B1502036
:101A200080F31188BFF34F8FBFF36F8FFEE700275E
:101A30004FF08058DFF8D890FFF788FCA56BC5B150
:101A400051462046FEF7B6FF6D1EA563206950B1D2
:101A500004F1100000F0ACF928B1C9F80080BFF320
:101A60004F8FBFF36F8FFFF791FC012006B0BDE8E9
:101A7000F087059808B126B107E0FFF787FC002042
:101A8000F4E701A8FFF760FD0126FFF77FFCFFF7F1
:101A9000D7FDFFF75BFC94F94400401C01D184F8AA
:101AA000447094F94500401C01D184F84570FFF75B
:101AB0006DFC05A901A800F02DF858B12046FFF7EC
:101AC000B3FA00F0E5F92046FFF756F90028B3D045
:101AD0000020CBE72046FFF74FF990B104F1240036
:101AE0000599FFF73FFD2046FFF79EFA00F0D0F979
:101AF0000028A1D1C9F80080BFF34F8FBFF36F8FCB
:101B00009AE72046FFF790FA00F0C2F994E7000048
:101B100004ED00E02DE9F04105460C46002D14D0FF
:101B2000DCB1FFF713FC1A4EF0686B68C11A22682B
:101B3000571C1AD02F68D6F820C00026674516D04B
:101B4000834214D8012526601CE0502080F31188C0
:101B5000BFF34F8FBFF36F8FFEE7502080F31188E4
:101B6000BFF34F8FBFF36F8FFEE700250AE08A4275
:101B700006D9501A20602846FFF7E6FC002501E050
:101B800026600125FFF702FC2846BDE8F081000031
:101B9000040000207CB5DDE90654CDE90054FEF7D1
:101BA0007DFF18B1FEF76CFE01207CBD4FF0FF30C9
:101BB0007CBD000005484169002903D0006B18B1C5
:101BC0000020704701207047022070470400002069
:101BD0000148C06870470000040000202DE9F04172
:101BE0000025484E306B002805D0B069401CB0611C
:101BF0002846BDE8F081F468641CF4609CB9706B01
:101C0000006838B1502080F31188BFF34F8FBFF3C5
:101C10006F8FFEE7706BB16B7163B063306A401C0D
:101C20003062FFF7A5F9B06A374F84420FD34FF007
:101C3000000C706B006838B1706BC068C168486890
:101C4000844214D2B06202E04FF0FF30B0623068DC
:101C5000C06A00EB800057F82000012800D9012558
:101C600028481C3000680028C2D00125C0E74A6916
:101C7000D1E902309860D1E90203586050680B1D29
:101C8000984201D1C8685060C1F814C01068401E65
:101C900010608A6A9AB1D1E90780C8F80800D1E9D2
:101CA0000708C8F80400506801F11808404501D140
:101CB000086A5060C1F828C01068401E1060C86AE9
:101CC0003269904200D9306100EB800007EB800060
:101CD00042688A609068C860906843609360C86A90
:101CE00000EB800007EB80024A6157F82020521C6D
:101CF00047F82020C86A3168C96A884299D9012505
:101D000097E7000004000020D400002070B50446CE
:101D10000020002C3ED0244D29688C4207D0502052
:101D200080F31188BFF34F8FBFF36F8FFEE7616DB4
:101D300089B3491E6165236DE26A9A422AD000295F
:101D400028D1201DFFF756FA206DE062C0F1050092
:101D5000A061E06A2969884200D92861134A00EB32
:101D6000800002EB80004068A0608168E1608368C9
:101D7000211D59608160E06A00EB800002EB800069
:101D80006061E06A00EB800052F82010491C42F8C4
:101D90002010012070BDFFE7502080F31188BFF3B1
:101DA0004F8FBFF36F8FFEE704000020D4000020A8
:101DB00030B5C068C06800282CD0816AD0E90732ED
:101DC0009A60D0E907235A604B6800F118029342E9
:101DD00001D1036A4B60002484620B685B1E0B60B8
:101DE000294B196BF1B1294C6168C1618D6805629D
:101DF0008D686A608A6084622168491C2160C06ABB
:101E00001968C96A88423CD901201F4A01211C3245
:101E1000116030BD502080F31188BFF34F8FBFF3A6
:101E20006F8FFEE74169D0E90252AA60D0E902252E
:101E30006A604D68021D954201D1C5684D604461DC
:101E40000C68641E0C60C16A1C69A14200D919614A
:101E50000E4C01EB81018C3C04EB810149688160EF
:101E60008D68C5608D686A608A60C16A01EB810116
:101E700004EB8102426154F82120521C44F82120D5
:101E8000BDE7002030BD00000400002060010020FC
:101E90002DE9F0470024A246FFF758FA0025484FE5
:101EA000386B28B1386B401E3863386B40B181E025
:101EB000502080F31188BFF34F8FBFF36F8FFEE781
:101EC000B868002876D03E4E4FF000083D4A4FF0EB
:101ED00001091C364EE0D068C468A16AD4E9073015
:101EE0009860D4E9070358604B6804F118008342F6
:101EF00001D1206A4860C4F828800868401E086044
:101F00006069D4E902319960D4E9021359604368E9
:101F1000211D8B4201D1E3684360C4F8148003683B
:101F20005B1E0360E06A3B69984200D93861254B2B
:101F300000EB80008C3B03EB80004068A060D0F891
:101F400008C0C4F80CC0D0F808C0CCF804108160F8
:101F5000E06A00EB800003EB8001616153F8201020
:101F6000491C43F82010E06A3968C96A884201D9DF
:101F700046F8259010680028ADD10CB1FEF7F8FFA7
:101F8000BC694CB1FFF72AFE08B146F82590641EE3
:101F9000002CF7D1C7F8188056F8250050B14FF043
:101FA000010A386808494FF080500860BFF34F8F2E
:101FB000BFF36F8FFFF7EAF95046BDE8F0870000E6
:101FC000040000206001002004ED00E01CB50024A6
:101FD000FEF7AAFC0C48006858B10B480321001D0D
:101FE000CDE900100023802208A10A48FFF7D2FDA6
:101FF00004460CB120461CBD502080F31188BFF36D
:102000004F8FBFF36F8FFEE744000020546D7220A6
:1020100053766300151000081E0000003200000017
:10202000320000000A000000280000004B00000001
:1020300019000000190000005820000800000020CE
:102040009400000028010008EC2000089400002003
:102050009427000044010008000000000000000078
:102060000000000000000000000000000000000070
:102070000000000000000000000000000000000060
:10208000000000000000000004000000000000004C
:102090000000000000000000000000000000000040
:1020A0000000000000000000000000000000000030
:1020B0000000000000000000000000000000000020
:1020C0000000000000000000000000000000000010
:1020D000AAAAAAAA0000000000A24A040000000068
:0C20E000000000000102030406070809CC
:04000005080000ED02
:00000001FF
